:0300000002007289
:0C007200787FE4F6D8FD75810802001EBE
:10001E00120046120056E4FF1200657F647E001245
:04002E00000380F259
:0D0065008F0812007EAF0812003202007EEC
:10003200EF4488F5BC00000000E5BC30E4FB53BC93
:04004200EFAFBD223D
:1000460075985A75D7D875D6FF758E14438E0122CA
:0F005600759DFFE4F5BD75BC807F02FE020003BF
:08007E003099FDC2998F99220F
:10000300EF1FAA0670011E4A60107C137D88ED1D48
:0A001300AA0470011C4A60E880F4A2
:01001D0022C0
:00000001FF
