:030000000200D526
:0C00D500787FE4F6D8FD7581200200263B
:10000300535443313546324B363053320D0A556122
:0C0013007274205465737420210D0A00E3
:10002600E4F594F593F592F591F596F595F5B2F517
:10003600B1F5B4F5B3F5CAF5C9F5CCF5CBF5E2F5EE
:10004600E1E5A2543FF5A27598DA758E40E4F5898C
:10005600758BE8758DFFD28ED2ACD2AF7BFF7A005E
:07006600790312006D80FE1A
:030023000200AB2D
:1000AB00C0D0309809C298859980A29A92A23099B3
:0800BB0004C299C200D0D0324A
:1000C3002000FDEF30D004D29B8002C29BD200F50A
:0200D300992270
:10006D008B088A09890AAB08AA09A90A12009260AD
:10007D0013050AE50A7002050914F9120092FF1220
:05008D0000C380E22227
:10009200BB010689828A83E0225002E722BBFE026C
:0900A200E32289828A83E493229F
:00000001FF
